:400000000080002011000000D12F0000D12F000008B5044B1A6803F53F5302331A6002F0F7FF00BFFA46004010B5054C237833B9044B13B10448AFF300800123237010BD7F
:400040007081FF1F00000000DC730000084B10B51BB108490848AFF300800848036803B910BD074B002BFBD0BDE81040184700BF000000007481FF1FDC730000C880FF1F14
:40008000000000002DE9F0478CB0254D0DF12E09CDF820900326079600240694059404944FF48078CDF80C801927029705F1C00301930423009323461A4A1B49284601F0EA
:4000C00023F9CDF820900796069405944FF00A0ACDF810A0CDF80C80029705F5B063019300962346114A124905F5986001F00CF9CDF82090079606940594CDF810A0CDF830
:400100000C80029705F52463019300962346094A094905F5186001F0F7F80CB0BDE8F0878C81FF1F9D030000E073000089020000E873000071010000F473000000B585B0F0
:4001400000F000FA00F008FA0DF10E0000F0F0FDFFF798FF0DF10E0301930020009064230246014601F026FEF4E700BF0000000010B584B0002302930DF10E03009300239F
:4001800003AA1946184600F085FEBDF80E30002BF2D1BDF80C20032A03D8354800F03EFAEAE7011D062A01D8033A00E0032202A805F00EF802A805F0C1FC014602A800F0D7
:4001C000D7F918B12A4800F029FAD5E70322294902A805F0BBFCB0B11AE0204604F0A0FC21A3D3E9002304F001FD0022224B04F027FE03F0C1F902460B46204800F016FAFC
:400200000A34A4B200E00024B4F5B47FE5D9B3E702A805F093FC014602A800F0C7F9044602A804F0A5FF83B2012C16D1B3F5B47F13D8184604F074FC0BA3D3E9002304F045
:40024000D5FC00220C4B04F0FBFD03F095F902460B460A4800F0EAF98EE7094800F0DEF98AE700BFAFF30080182D4454FB2109400074000020740000008066402474000022
:40028000347400000000000010B584B0002302930DF10E030093002303AA1946184600F0F9FDBDF80E30002BF2D1BDF80C20032A03D8354800F0B2F9EAE7011D062A01D8F6
:4002C000033A00E0032202A804F082FF02A805F035FC014602A800F04BF918B12A4800F09DF9D5E70322294902A805F02FFCB0B11AE0204604F014FC21A3D3E9002304F06E
:4003000075FC0022224B04F09BFD03F07DF902460B46204800F08AF90A34A4B200E00024B4F5B47FE5D9B3E702A805F007FC014602A800F03BF9044602A804F019FF83B29C
:40034000012C16D1B3F5B47F13D8184604F0E8FB0BA3D3E9002304F049FC00220C4B04F06FFD03F051F902460B460A4800F05EF98EE7094800F052F98AE700BFAFF300800D
:40038000182D4454FB2109400074000020740000008066405C7400003474000030B595B04022002103A804F01EFF00252C4600F031F9232822D100F02DF928B1621C14A9D3
:4003C0000C4404F8440CD4B20DF14E0301930020009014230246014601F0ECFC631E14AA1A4412F8442C242AE5D114AA1344002203F8442CA31EDDB2012306E0402200210F
:4004000003A804F0F0FE00231C46002B3DD00422234903A805F09AFB78B9062D09D80DF14E0300930023402203A91E4801F0FCF825E01D4800F0F2F821E004221B4903A88E
:4004400005F084FB78B9062D09D80DF14E0300930023402203A9164801F0E6F80FE0124800F0DCF80BE0134800F0D8F8124800F0D5F8124800F0D2F8114800F0CFF84022D3
:40048000002103A804F0AFFE00240DF14E0301930020009064230246014601F08BFC86E7687400004C86FF1F34740000707400000C8BFF1F7874000090740000BC740000F0
:4004C000FC74000030B58DB000F02CF800F054F90DF12E05284602F007F90F480895032307930024069405940494802303930C23029300F570630193022300932346074A1A
:40050000074900F5646000F0FFFE284601F0C8FF20460DB030BD00BF8C81FF1F3D0100003C750000044B1B6823F00053034A9A63034ADA63704700BF08ED00E01931000015
:400540004509000008B500F0EDF800F05FF808BD0048704700366E0108B5FFF7F9FF034B1B68B0FBF3F000F0FDF908BDF075000010B4002310E0C45C0B4A1268224492F91A
:400580000120002A03DB092C03D1012202E0012200E0002222B101338B42ECDB012000E0002010BC704700BFD080FF1F10B4002308E0C25C074C24682244527812F0040F62
:4005C00004D001338B42F4DB012000E0002010BC704700BFD080FF1F08B5FFF7B9FF064A136843F080731360044A136843F00103136000F0C7F808BDFCED00E0001000E017
:40060000014B1868704700BF041000E008B502F00DFE08BD08B502F017FE08BD08B502F08BFE08BD08B502F099FE08BD2DE9F041C2B0044617461D46FF22002102A804F0D1
:40064000D2FD002200233846294604F041FD58B305F10045F822214602A805F08CFA05F06DFA044602AB1E1800222A4B3846294604F0BCFA04F054FD80463846294604F0B8
:400680004FFD254B83FB08324FEAE873C3EB6213642202FB138300930346204A0721304605F01AFA211828E0F922214602A805F062FA05F043FA044602AB1E180022154B6A
:4006C0003846294604F092FA04F02AFD80463846294604F025FD104B83FB08234FEAE872C2EB6313642202FB1383009303460C4A0621304605F0F0F92118C9B202A8FFF7D5
:4007000091FFFF22002102A804F06DFD42B0BDE8F08100BF000059401F85EB51447500005075000008B50C2002F0A4FE0C2002F0E9FE0C2002F004FF012002F0F5FE08BDB3
:4007400008B50022024B1A60FFF746FF08BD00BFA092FF1F10B502F0B9FC04461021034800F038F8204602F0B5FC10BDA492FF1F08B5FFF7EFFF08BD08B5FFF7E1FFFFF759
:40078000F7FF08BD014B1860704700BFA092FF1F10B40024234602E041EA03230134032CFAD910F0030404D10AE00170013A013401302AB1032CF8D902E00360043A0430CF
:4007C000032AFAD802E00170013A0130002AFAD110BC704708B50A460021FFF7D9FF08BD08B5024B1B6803B1984708BDCC95FF1F10B40B4B1C682246002303E00020106002
:4008000001330432074801688B42F7D301F18041013904EB8101044B196010BC704700BF2476000020760000B492FF1F08B5024B1B6803B1984708BDE895FF1F08B5024B79
:400840001B6803B1984708BD3893FF1F08B5024B1B6803B1984708BD1C94FF1F08B5024B1B6803B1984708BDC092FF1F10B4019C02EB84024FF0807442F8044C42F8080CCD
:400880001B4842F80C0C4FF0123042F8100C4FF0033042F8140C4FF0023042F8180C42F81C3C42F8201C4FF0113342F8243C4FF0103342F8283C4FF0093342F82C3C4FF070
:4008C000083342F8303C4FF0073342F8343C4FF0063342F8383C4FF0053342F83C3C4FF0043342F8403CA2F1400010BC704700BF6D17000010B50C4B1B6803B19847FFF7B8
:400900007FFE0A4B1A680A4B19688A4209D0D2F89830C31AC2F89430D2F89C402344C2F89C30C1F8980010BDD895FF1F0494FF1F1094FF1F08B5024B1B6803B1984708BD62
:400940002094FF1F08B502F0C1FB054A13780133137002F0BFFB01F0DFFA01F0AFFC08BD2A94FF1F0138084B1860084A136823F07F431360064B1A6842F005021A601A68D5
:4009800042F002021A60704714E000E020ED00E010E000E0002304E00021034A42F823100133002BF8D07047B892FF1F10B50024064B02E02034E4B2043318680028F9D069
:4009C00002F08FFBC0B22044C0B210BDB892FF1F420900F01F00C0F11F00012303FA00F0034B53F82210084343F82200704700BFB892FF1F410900F01F00C0F11F00012325
:400A000003FA00F0034A52F8213023EA000342F821307047B892FF1F0023034A1360034A13800380704700BFBC95FF1F0894FF1F0023034A1360034A13800380704700BF86
:400A40003493FF1FC095FF1FF8B5074602F03EFB0023244A1380244A1360244A1360244A1360244A138102F035FB02F02FFB224B1C6802F02FFB1BE002F028FB0646002564
:400A8000A567C4F8A850C4F89050A4F88C50A4F88E50C4F89C50C4F8A050FFF7B1FDC4F89800A4F87050D4F8B840304602F012FB002CE1D102F00AFB104B1C6802F00AFB5C
:400AC00006E002F003FB0023A385A46902F002FB002CF6D101F05AF801F044FB00233B80F8BD00BF0A94FF1FC492FF1FC096FF1F1894FF1FF094FF1F1494FF1FBC95FF1FDC
:400B00002DE9F04182B007E07A4B18680DF106020021400001F004F9774B1B78012BF3D10DF10600FFF790FF744B1B68714A1768BB4202D9B3FBF7F700E0002727B9A7F17E
:400B40003337A7FB0323DF08FFF75AFD064602F0BDFA6B4C6B4B1A68226000221A6002F0B9FA694B1A6823689A4230D967498A420CD967498A420DD966498A420ED96649EE
:400B80008A420ED84FF47A710A200DE0012142F2107009E00A214FF47A7005E06421084602E042F210710120B2FBF1F203FB00F3B3FBF2F3C3F51C5310339BB2574A1380B8
:400BC000574A1288934206D9554A138003E042F21072524B1A80FFF729FE02F077FA514B1C6802F077FA002513E002F06FFAD4F89C30C4F8A0300023C4F89C3002F06AFA69
:400C0000D4F8A0301D4402F061FAD4F8B84002F061FA002CE9D11DB33C4B9D420DD93C4B9D420ED93B4B9D420FD93B4B9D4210D84FF00A084FF47A730FE042F21078012320
:400C40000BE04FF47A780A2307E04FF06408434603E04FF0010842F21073B5FBF3F502E001254FF0000802F031FA2E4B1C6802F031FA22E0D4F8A03003FB08F3B3FBF5F3DF
:400C80009BB242F21072934200D91346A4F88C30B4F88E20934201D9A4F88E300DF1060304F1AC0204F1B001204600F03BFA02F00DFAD4F8B84002F00DFA002CDAD11A4BA2
:400CC0001B78012B06D10022174B1A700DF10600FFF7BAFEFFF794FC801B144B1B68984201D9124B18600DF106020021384601F017F829E7087600003193FF1FF075000098
:400D0000E495FF1FC892FF1FD095FF1F7F1A0600FF083D00FF596202FF83D7172894FF1F0A94FF1F1494FF1FF495FF1FC492FF1F30B583B004460DF10601254800F002FED7
:400D4000BDF806300BB123803FE00DF106020021022000F0E5FFBDF806300BB1238034E002F0B4F900221B4B1A6002F0B3F91A4B1B681A4A1068834202D9B3FBF0F000E07E
:400D8000002020B9A0F13330A0FB0330C0080DF10602002100F0C4FF0DF106010C4800F0C3FCBDF806300BB123800EE002F08EF900250B4B1D60074B1A680A4B1A6001225F
:400DC000094B1A7002F086F9258003B030BD00BF3094FF1FC892FF1FF075000008760000C492FF1FD095FF1F3193FF1F00231C4A13601C4A13601C4A13601C4A13701C4A8D
:400E000013701C4B1A681AB946F62B6303807047194B1968194B1B68994203D246F62C630380704710B58AB0154B1C78062C03D946F62A63038011E0089003230793002335
:400E400006930593049303910E4909680291019200940D4A0D490E4800F056FA0AB010BDC892FF1FE495FF1FD095FF1F3193FF1FF495FF1F04760000FC750000F47500005B
:400E80000C76000000760000010B00005C750000FC95FF1F2DE9F047089F534C24782CB146F2AE133B800020BDE8F0872AB946F2D5233B800020BDE8F08741B1B1F5004FC1
:400EC00005D045F625633B800020BDE8F0870BB100241C601D4690460E46814602F0F6F88246424B18683B462A464146643001F0C7FE04463B889BB965B13C4E3768FFF7A6
:400F00007FFB2B68C01A78673368996F5A6F914200D29A67504602F0DDF82046BDE8F08716F4004F08D046F2B0133B80504602F0D1F80020BDE8F0872D4B1B7843B15046F1
:400F400002F0C8F846F663533B800020BDE8F0874B4602220021084601F094FD504602F0B9F801F0FFF902F0B1F806461F4B1B6893F8352012B1012A1AD023E0DC6DB3F88B
:400F80006030A8F8003085B1DFF86080D8F800301B6C2B60FFF734FBD8F80020136CC01A5067936F984200D9906700233B8015E00023A8F8003005B12B6046F2A9133B804B
:400FC00000240BE00023A8F800301DB1074B1B681B6C2B6047F2D9233B800024304602F079F82046BDE8F0872A94FF1F0494FF1FBC92FF1F2DE9F843474C247824B146F240
:40100000AE121A80002484E039B1B1F5004F04D045F625621A8000247BE00AB1002414601F4616460D46804602F050F881463B4B1B685C6CC4B1013C5C640EB11B6C3360F6
:40104000FFF7DEFA354B1A68136CC01AC2F8A400D2F8A830984201D9C2F8A800484602F039F800233B8054E015F4004F05D002F031F846F2B0133B804BE0294B1B782BB162
:4010800002F028F846F663533B8042E0434607220021084601F0F6FC484602F01BF801F061F902F013F805461C4B1A6892F83530012B17D013B1032B1BD021E07EB1136CAE
:4010C0003360FFF79DFA154B1A68136CC01AC2F8A400D2F8A830984201D9C2F8A80000233B8010E00EB1136C336046F2A9133B8009E00EB10023336047F2D9233B8002E001
:4011000046F62E633B80054B1B685C6C284601F0E1FF2046BDE8F8832A94FF1F0494FF1FBC92FF1FF8B51E46204B1B781BB147F259133380F8BD04460D46174619B946F2DD
:40114000D5233380F8BD1AB946F2D5233380F8BD01F0BCFF0CB9164B1C68236843B901F0B9FF00232B603B6047F252133380F8BDA38F13F0010F08D101F0ACFF00232B6067
:401180003B6047F254133380F8BD01F0A3FF636A002201E00433013219680029FAD02A60A36B9A1A3A6000233380F8BD2A94FF1F0494FF1F0023C0F8B430064B1B6813B9E9
:4011C000C0F8B83003E0C0F8B830C3F8B400014B186070471494FF1FD0F8B420D0F8B8304AB90D4A136013B10022C3F8B4200023C0F8B830704723B9C2F8B830C0F8B430FA
:401200007047C2F8B830C3F8B4200023C0F8B830C0F8B430704700BF1494FF1F0023044A1360044A1380044A13600380704700BF1494FF1F2C94FF1F2494FF1F38B50446FB
:401240000025056085604560C560056145618561C5612B4B036245628562C5620563C5870564C565A0F860502946643001F000FD6567A567C4F88050A4F88850C4F88450A5
:4012800007E005F11E0304EB830300225A600135EDB2002DF5D000256564C4F8A450C4F8A850A56384F88A50C4F8B050C4F8AC50A5874FF00043A364E56425656565A56598
:4012C000A4F88C50A4F88E50C4F89050C4F89450FFF796F9C4F89800C4F89C5084F8345084F8355084F83650082384F83730C4F8B450C4F8B850034BC4F8BC3038BD00BF00
:4013000070750000787500002DE9F04E82B09DF82860BDF84470604D2D7825B147F24A13129A1380B4E020B947F2AD13129A1380AEE022B947F24F13129A1380A8E00B9CBB
:4013400024B946F62F63129A1380A1E0534D2D680D9CA54204D946F63063129A138097E00D9C0C9DAC4204D846F63163129A13808EE0072E04D946F27323129A138087E0BC
:40138000072E07D1464DA84204D046F27323129A13807DE0994615468A468346FFF74EFF0023129A138017F0010F0ED007F002039BB22BB909E0002142F8041B013301E053
:4013C0000B9A00230D998B42F5D30B9B0C9A03EB820401970D9B009323460B9A49462846FFF744FACBF82850CBF82C90CBF820A08BF83760CBF80000CBF808400F9BCBF886
:40140000543023B9274B1B68CBF8583002E00F9BCBF85830109BCBF804300B9BCBF824300D9BCBF83830ABF83C70002307E003F11E020BEB8202002151600133DBB2002B5E
:40144000F5D0BDF838100BF1640001F011FC5846FFF7F4F901F03AFE04469BF83700FFF7B7FA584601F014FA5846FFF7A3FE0E4A1388013313800D4B1B78012B03D020460B
:4014800001F028FE04E0204601F024FE00F06AFF02B0BDE8F08E00BF2A94FF1FF4750000FC94FF1FC895FF1F2C94FF1FCD92FF1F70B50D462D4B1B781BB147F24E130B808E
:4014C00070BD04462A4B984203D147F24C130B8070BD28B901F0FAFD264B1C6801F0FAFD01F0F4FD064694F83630072B1CD8DFE803F004080C0C21080C0C204601F024FA82
:4015000018E0204600F026FB14E0204600F022FB94F83430012B03D063B1033B032B09D8204601F0A5F805E001F0D4FD46F62D632B8070BD04F1640001F080FB2046FFF725
:4015400085F92046FFF748FE0B4A1388013B13802046FFF773FEFF2384F83630304601F0B9FD00232B8000F0FDFE70BD2A94FF1FFC94FF1F0494FF1F2C94FF1F2DE9F04351
:4015800083B004460F46904699460B9D01F09EFD06460CB9234B1C6800232B8094F83630072B36D8DFE803F0040412120404121201950A9B00934B464246394604F164009C
:4015C00001F08CFB304601F085FD28E094F83430022B10D10A9B009343463A462146002001F088FA304601F075FD19F4004F16D100F0B8FE13E001950A9B00934B464246AD
:40160000394604F1640001F069FB304601F062FD05E0304601F05EFD46F62D632B8003B0BDE8F0830494FF1FF0B583B0102B0ED001D83BB90BE0B3F5004F08D048F2100452
:40164000A34204D045F62563089A13800EE01C4617460E460546FEF7D3FF089B0193009023463A4631462846FFF788FF03B0F0BD70B504460D4601F029FD064600232B8041
:4016800094F83630072B45D8DFE803F0040404040A1A283601F01EFD47F253132B803FE094F88A30013BDBB284F88A3023B984F83630204601F010FA304601F00BFD2FE046
:4016C00094F88A30013BDBB284F88A3013B9012384F83630304601F0FDFC21E094F88A30013BDBB284F88A3013B9022384F83630304601F0EFFC13E094F88A30013BDBB206
:4017000084F88A3013B9032384F83630304601F0E1FC05E001F0DEFC46F62D632B8070BD00F020FE70BD00BF38B50E4B1B781BB147F255130B8038BD0D46044601F0C6FCF7
:401740001CB1094B1B689C4205D101F0C3FC47F257132B8038BD01F0BDFC29462046FFF787FF38BD2A94FF1F0494FF1F00B583B0054B1868FFF772F80DF106010020FFF769
:4017800097FE03B05DF804FB0494FF1F2DE9F04182B00446884615461E4601F097FC07460CB9294B1C6825640023338094F83630072B3ED8DFE803F004041616040416163E
:4017C000656CB5F1FF3F07D1384601F083FC46F6C5533380002533E001356564384601F079FC2DE094F83430072B10D1009500231A462146184601F07DF9656C384601F0B8
:4018000069FC18F4004F1BD100F0ACFD18E0656CB5F1FF3F07D1384601F05CFC46F6C553338000250CE001356564384601F052FC06E0384601F04EFC46F62D633380002500
:40184000284602B0BDE8F0810494FF1F70B50C4639B1B1F5004F04D045F625631380002070BD15460646FEF7CBFE2B46024621463046FFF78BFF70BD70B504460D4601F054
:4018800025FC06460CB92D4B1C682C4B1B689C4209D12B4B1B7833B1304601F01BFC46F663532B8070BD00232B8094F83630072B39D8DFE803F004111B252F2F2F2F04231E
:4018C00084F83630012384F88A30204601F03CF8304601F0FFFB2DE0052384F83630012384F88A30304601F0F5FB23E0062384F83630012384F88A30304601F0EBFB19E04A
:40190000072384F83630012384F88A30304601F0E1FB0FE094F88A30013384F88A30304601F0D8FB06E0304601F0D4FB46F62D632B8070BD00F016FD70BD00BF0494FF1FC0
:40194000BC92FF1F08B5084B1B781BB147F25D130B8008BD054B984203D147F25B130B8008BDFFF789FF08BD2A94FF1FFC94FF1F002309E0074A002142F8331002EBC30224
:401980009180D18001339BB2034A12889342F1D3704700BFD498FF1FD875000010B58AB004460023194A1360194A1360FFF7E0FF184B1A681AB947F21223238023E0164B5D
:4019C0001968164B1B68994203D247F21323238019E0134B1878062803D947F21123238011E008940B230793002306930593049303910C4909680291019200900A4A0B49C7
:401A00000B48FFF781FC0AB010BD00BFD495FF1FC096FF1FE8750000E0750000F4750000EC750000E4750000F51C00007C7500004093FF1F70B4042A11D1434A12688A1AF8
:401A4000541E14F5803F07D90022C2640265C26147F27E221A8074E0C164026521E0C1B1082A10D1846C0C44374A1268A51A013DA94201D9C46401E01144C164C16C8A1A50
:401A8000026581640DE0304A12680A44C264016507E00022C2640265C26147F27E221A804FE0C56C294A1188B5FBF1F201FB1255ADB2274E06EBC506B2883AB9426182614E
:401AC000234A42F835000121B1802CE0204A52F8352020E0D16C1C4C2468091B1165046DA14207D25169A9B900244461826150610A4610E0916939B9816142619061144A31
:401B000042F835000A4606E08161426148619061002200E00A46002ADCD10D4A02EBC5029188013191800A4A02EBC502D1889288914203D2064901EBC505EA80C661002276
:401B40001A8070BC704700BFD495FF1FD8750000D498FF1FC369BBB1002202651A68904205D142691A603AB10021916104E0816942694A6102B19161002242618261C261C9
:401B8000C2649A88013A9A80704700BF002306E0054A02EBC3020021D18001339BB2034A12889342F4D37047D498FF1FD87500002DE9F84301F08AFA8046FEF721FD074618
:401BC000484A136801331360474A1188B3FBF1F201FB12339BB2454A52F83340002670E0002C6DD0656994F83630013B062B65D8DFE803F00464126430643E00E26C394B17
:401C00001B68D11A21659A4251D1002384F83630204600F061FF51E0E26C324B1B68D11A21659A4245D14FF00009C4F85C90A4F86090FEF7E5FC2064204600F019FD20466D
:401C400000F04AFF84F83690032384F8353084F8349033E0E26C234B1B68D11A21659A4229D1042384F836302046FFF773FF25E0E26C1C4B1B68D11A21659A421DD14FF07B
:401C80000009C4F85C90A4F86090FEF7B9FC2064204600F0EDFC2046FFF75CFF042384F83630032384F8353084F8349006E0012604E0012602E0012600E001262C4600E0F9
:401CC0000126002E8CD0FEF79BFCC01B084B1B68984201D9064B1860404601F0FBF9BDE8F88300BFD495FF1FD8750000D498FF1FC096FF1F00B583B00DF106036A4600219D
:401D00000846FFF777F9BDF80630002BF4D1034B1B78012BF0D1FFF74BFFEDE7CD92FF1FF8B5214C24781CB147F275231380F8BD1E4B1B781BB146F663531380F8BD0829E6
:401D40000BD8DFE801F0050A050A0E0A0A0A050038B947F27E231380F8BD45F625631380F8BD15460C46064601F0B0F90746104B1868012380F836302B4622463146FFF758
:401D800059FE2B881BB1384601F0A4F9F8BD084B186800F0D9FD384601F09CF900F0E2FA00232B80F8BD00BF2A94FF1FBC92FF1F0494FF1F70B5BDF81040524D2D7825B19F
:401DC00047F27523059A138070BD4F4D2D7825B146F66353059A138070BD04F00E05082D0FD8DFE805F0050E050E130E0E0E050063B95AB951B948B947F27E23059A1380BE
:401E000070BD45F62563059A138070BD34F01E0604D045F62563059A138070BD04F01004A4B20CB1012400E00024E4B9B3F57A7F04D347F27B23059A138070BD3B2A04D944
:401E400047F27A23059A138070BD3B2904D947F27923059A138070BD632815D947F27823059A138070BD42F20F74A14204D947F27923059A138070BDB0F57A7F04D347F2B3
:401E80007823059A138070BD204C2468C1EB01118E004FF4616101FB006002444FF4FA71B1FBF4F10B4403FB04F31949A1FB03139B0902FB043404B301F008F90646154B78
:401EC0001868012380F83630059B2A462146FFF7B1FD059B1B881BB1304601F0FBF870BD0C4B186800F030FD304601F0F3F800F039FA0023059A138070BD47F27E23059A4B
:401F0000138070BD2A94FF1FBC92FF1FF0750000D34D62100494FF1F00B583B0FEF70AFD0DF1060200210F48FFF790FC0E4B1B7803EB43039A000D48104400F041FD0C4A21
:401F40001368013B13604BB90A4B1A68084B1A600DF1060200210848FFF778FC03B05DF804FB00BF4093FF1F3C93FF1FD092FF1FD096FF1FC496FF1F3094FF1F10B58AB0AD
:401F800000222C4B1A602C4B1B6833B12B4A1268B2FBF3F32A4A136007E0284B1B68294AA2FB0323DB08264A1360254B1A68264B1A600023254A1360254A136009E02549D3
:401FC00001EBC3040022A280E28041F8332001339BB2214A12889342F1D3204B1A681AB947F24733038023E01D4B19681D4B1B68994203D247F24833038019E01A4B1C7837
:40200000062C03D947F24633038011E008900B2307930023069305930493039113490968029101920094124A12491348FFF76CF90AB010BDBC96FF1FCC750000F0750000FC
:40204000C496FF1FCDCCCCCCD096FF1F0094FF1F1894FF1F9CA1FF1FB8750000C8750000C0750000F4750000D0750000C4750000E1210000987500003094FF1F10B40223FC
:4020800080F82A30012905D1426A334B1B68134483610BE0036A2BB9426A2F4B1B681344836103E02C4A12681344836183692B4A1488B3FBF4F204FB1234A4B2284A52F850
:4020C000342052B9002303614361254B43F8340003EBC40301229A8030E01F4A12689B1AC3611F4B53F8343020E09A691A490968521ADA61C1698A4207D21A69AAB900214C
:40210000016143611861134610E05A693AB9426103615861124B43F83400134606E04261036110615861002300E01346002BDCD10B4B03EBC4039A8801329A80084B03EB36
:40214000C403DA889B889A4203D2054A02EBC404E38010BC704700BF0094FF1FB87500009CA1FF1F002306E0054A02EBC3020021D18001339BB2034A12889342F4D3704748
:402180009CA1FF1FB87500008169134B1B88B1FBF3F203FB12139BB2104A52F83320904207D102690D4941F833203AB10021516104E0416902690A6102B15161012280F89B
:4021C0002A20002202614261044A02EBC3039A88013A9A80704700BFB87500009CA1FF1FF0B583B00DF106036A4600210846FEF701FF0DF1060000F0F5F8FEF701FA0746E6
:402200001F4A1368013313601E4A1188B3FBF1F201FB12339BB21C4A52F8334000231CE0ECB12669A169164B1A680123914214D12046FFF7A9FF238D022B04D1012120467E
:40224000FFF71CFF02E0032384F82A30A36813B1E1682046984734462B461D4600E00125002DDDD0FEF7CCF9C71B0DF1060000F0E3F8064B1B689F42B4D9044B1F60B1E7D1
:402280000094FF1FB87500009CA1FF1F1894FF1F704700BF08B500F019FF064A136801331360054A13680133136000F013FFFEF797FAF0E7E095FF1FC892FF1F204B1B7894
:4022C000012B3BD110B500F001FF04461D4B1B7813B900F0FFFE10BD013BDBB2194A137013B100F0F7FE10BD174B1B7813B100F0F1FE10BDFEF75AFB144B187000EB400040
:402300008300134AD358134A1360134A1268934203D1204600F0DEFE10BDD3F890200132C3F890200D4A1368013313604FF080520B4B1A60204600F0CDFE10BD704700BF6C
:40234000CD92FF1F2A94FF1FBC92FF1F3093FF1FD092FF1F1094FF1F0494FF1F2494FF1F04ED00E0174B1B7853BB174B1B783BBB10B500F0ABFE0446FEF718FB134B187094
:4023800000EB40008300124AD358124A1360124A1268934203D1204600F09CFE10BDD3F890200132C3F890200C4A1368013313604FF080520A4B1A60204600F08BFE10BDC0
:4023C000704700BF2A94FF1FBC92FF1F3093FF1FD092FF1F1094FF1F0494FF1F2494FF1F04ED00E0114B1B781BB146F66253038070470F4B1B78012B03D045F68963038023
:4024000070470C4B1B78F92B03D945F209230380704710B5044600F059FE064A13780133137000F057FE0023238010BD2A94FF1FCD92FF1FBC92FF1F164B1B781BB146F6DD
:40244000655303807047144B1B78012B03D045F6896303807047114B1B781BB946F664530380704710B5044600F030FE0B4A1378013BDBB213702BB100F02CFE46F66353E7
:40248000238010BD00F026FEFFF76CFF0023238010BD00BF2A94FF1FCD92FF1FBC92FF1F104B1B78CBB910B50446FEF77FFA0E4B18700E4B187000EB400083000C4AD35840
:4024C0000C4A13600C4A13600122064B1A7000F013FE43F69923238010BD45F68A630380704700BFCD92FF1F3093FF1F3C93FF1FD092FF1F1094FF1F0494FF1F00B58BB092
:4025000000230D4A136008900B2207920693059304930A4A12680392094A12680292094A1268019207220092074A08490848FEF7EBFE0BB05DF804FBE095FF1F4876000079
:402540004C760000507600009522000054760000FC94FF1F10B4C287016300240AE000234B600B600B614B610B83CB61886020310134A4B29442F2D310BC704738B14268A5
:40258000C1F8BC2082689268126AC261704791F83430022B02D0072B04D007E0054BC1F8BC307047044BC1F8BC307047034BC1F8BC307047687600007076000078750000C1
:4025C000054BC1F8BC3083681BB19B681B6AC3617047014BC36170477875000010B48B6893F8374003893BB90123038100234B600B60016041601DE001330381036805E097
:402600009A6892F83720944202D35B68002BF7D12BB94B6043680B60596041600AE01A6822B919600A604B60016003E00A604B605160196010BC70470389012B03D10023CD
:40264000036043600DE00B6823B94B6800221A60036006E04A6812B95A60436001E05A6013600389013B038100234B600B60704770B50646056BC48F07E0E868294608304A
:40268000FFF7DAFF2035013CA4B2002CF5D10023F387336370BD00BF30B40C6BC98F0BE0E568854205D1206162612383029BE36104E02034013989B20029F1D130BC7047C4
:4026C00030B400230AE0074C5A00D0188100651800202881605068600133DBB2072BF2D930BC7047D092FF1F10B50446FEF780F800233C4A13703C4A13703C4A13703C4AF4
:4027000013603C4A13603C4A13703C4A13703C4A13703C4A13703C4B1B683C4AA2FB0323DB083B4A13603B4B1B684BB13A4A126822B905E0013B002142F8041B002BF9D16D
:402740000023364A1360364A1360364A1360364A1360364A1360364A1360364A1360364A1370FEF717F9FFF7ABFF204600F01AFA2388ABBB204600F021FA238883BB2046AE
:4027800000F028FA23885BBB204600F0F1FA238833BB2046FEF740F923880BBB2046FEF747F92388E3B92046FEF738FD2388BBB92046FFF7A3FE238893B92046FFF7EEF8A0
:4027C00023886BB92046FEF711FB238843B92046FFF7D4FB23881BB900F0E2F9FFF758FD10BD00BF2A94FF1FCD92FF1FBC92FF1F0494FF1F1094FF1F3C93FF1F3093FF1FA5
:402800000C94FF1FC896FF1FF0750000CDCCCCCCC895FF1F20760000247600003893FF1F1C94FF1FC092FF1FCC95FF1FE895FF1FD895FF1F2094FF1FCC92FF1F70B490F857
:40284000373003EB43018A0010490A4412896AB95A00D518AC000D1901262E810025C5600561085122460A4450600DE007495D00EE18B4000E19013232810A59C26000226A
:4028800002610A591061085170BC7047D092FF1F70B490F8373003EB43018A0010490A4412896AB95A00D518AC000D1901262E810025C5600561085122460A4450600CE0A7
:4028C000074C5D00EE18B100214401320A810022C2604A680261D060486070BC704700BFD092FF1F10B5044690F83700FEF770F894F83720054B1B789A4203D12046FFF7FE
:40290000C7FF10BD2046FFF799FF10BD3C93FF1F0389012B17D9022B09D1036842681A610021D9601161D36002604360704710B403684168DA6800241461DC601961CB60C8
:402940000260436010BC704770B5044690F837500069E168E0B969B918496B005A1990000E18002232810A50726094F83700FEF741F81FE0114E6B00581982003244108932
:402980000138108100220A611D44AB00F15011E06A002A449300094A13441A89013A1A81C16031B905EB4505AB00044A1344586000E0086100232361E36070BDD092FF1FC7
:4029C00038B51D4B1B78012B34D1044600F07EFB0546236813B900F07DFB38BD174A934202D100F077FB38BD9A6D0AB1013A9A659B6D1BB1284600F06DFB38BD2389012B49
:402A000003D8284600F066FB38BD0D4B1B781BB1284600F05FFB38BD2046FFF779FF23685A6D1AB9074A12689A6500E09A65284600F050FB38BD00BFC896FF1FFC94FF1F7A
:402A4000BC92FF1FC895FF1F10B582B0044681B10DF1060302222046FEF7ECFFBDF806301BB9032384F8363006E0022384F8363002E0022380F836302046FFF765FF02B080
:402A800010BD00BF70B505460C461249086880F83420002280F835201946FFF7D5FF6CB104F10806EC60012229460A4B1868FFF751FD29463046FFF791FD04E0054B1B68E2
:402AC0000022DA871A63034B19682046FFF756FD70BD00BF0494FF1F10B50446FFF73AF894F8363013F0040F02D12046FFF7FAFE10BD00BF30B583B005460C4691F8361040
:402B0000023905294AD8DFE801F003034949262694F83410032906D10699009121462846FFF7BAFD04E0E265A4F86030069B236435B12046FFF79CFD21462846FFF740FD87
:402B40002046FFF7C9FF002384F8363084F8353084F8343022E094F83410032906D10699009121462846FFF797FD04E0E265A4F86030069B23642046FEF7ECFF35B12046F6
:402B8000FFF776FD21462846FFF71AFD042384F83630002384F8353084F8343003B030BD704700BF0023034A1360034A13800380704700BFF095FF1FEC95FF1F0023034A59
:402BC0001360034A13800380704700BFC495FF1FF695FF1FF0B4164B1E681EB945F21E73038023E0134B1F881FB945F21D7303801CE006F110047D1EADB23346002208E00E
:402C00001C60002159601981D96010331034013292B2AA42F4D300221A605A601A81DA60054B1E609F80DA801A810280F0BC70471076000018760000F094FF1F0346408900
:402C400098B130B41968094A14680C60596811605D89D488641BD48091882944918000225A819A811A605A6030BC7047F094FF1F018100234381838103604360704700BF13
:402C800070B4448944B90020088002B1106046F292521A8000201CE04468656826890E800AB1E16811602268426012B90260428102E04289013A4281074A116821601460D8
:402CC000918801319180D1880139D18000221A80284670BC704700BFF094FF1FF0B547890489A74204D346F29353069A1380F0BD9E461E4CA58825B945F21D73069A138013
:402D0000F0BD1A4E346823683360013DB580F5880135ADB2F5803689B54201D9134E358137B90460446001234381002323600FE00EF010039BB22BB903681C6004600023FE
:402D4000236002E0436823604460438901334381858943899D4200D2838161602281059BE3600023069A1380F0BD00BFF094FF1F0023034A1360034A13800380704700BF62
:402D8000CC96FF1FF895FF1FFEE700BFF0B40022174611E050F82760F3B226F0FF0608E001EB420511F812406D78A5550132013BDBB2002BF4D10137152FEBD9F0BC7047BD
:402DC000064B1B78DBB203F00701054A11701B09013213704422034B1A707047CF0100496E5800407658004008B50A46002102F0FAF908BD38B50B22254B1A801823254AF5
:402E00001370192502321580023213700222224B1A7008224FF040231A70032103F5007319701E4B1B78DBB21D490B701D4B1A8041F25122023B1A8000240CE01A4B1B78D7
:402E400003F0010343EA440404F003044FF4F07000F082FB013D0DB1032CEFD115B90320FFF792FF114B4FF480721A8007221A7000220F490A704820023108701A700222E5
:402E8000033B1A700B4A137843F00303137038BD80400040824000400043004008010049A146004022420040254200400440004006400040A243004008B502F089F908BD4B
:402EC00038B572B6334A137843F00403137000240CE0314D630019194A0011462A44084691882858FFF780FF0134E4B2072CF0D900240BE02849A300181942008818062245
:402F0000416B006BFFF7D8FF0134E4B2002CF1D022494FF09040FFF739FF214A137843F0020313701032137843F0020313701D4C237843F040032370A2F58632513A1378A2
:402F400043F0100313700A2217491848FFF7B4FF082217491748FFF7AFFF082216491748FFF7AAFF164A137843F008031370154D61232B70FFF73EFF81232B700122124BC0
:402F80001A70FFF71DFF0E2221461048FFF794FF38BD00BFE84600407C7600005800004803500140A04300407C050048C05100408805004812510040900500482251004070
:402FC000224300400048004004000840B043004008B502F0D1F803680C2B00D1FEE7FEE708B5094B1A681044084BC31A802B02DC054B186005E002F0BFF80C2303604FF0A9
:40300000FF32104608BD00BFCC80FF1F68A9FF1F08B5104E104D16E029686B68AC68002204E051F8040B43F8040B0432A242F8D1E868002203E0002143F8041B04328242B1
:40304000F9D11035013E002EE6D102F09BF8FDF739FAFEE701000000187B000008B5104A104B1A60104A136843F40073136000230AE0032B03D80D4A52F8231000E00C49FB
:403080000C4A42F8231001332F2BF2D90A4B1A780A4B1A70074A0A4B1A60FFF711FF08BD0004FA050CED00E014ED00E000000000D12F00000080FF1FBC760040C080FF1F18
:4030C00008ED00E072B6704762B67047EFF3108072B6704780F31088704730BF704720BF7047B0FA80F0704790FAA0F0B0FA80F0704790FAA0F070471848FF210170002060
:4031000080F309881648016881F3088815484FF08051016062B6FEE772B6EFF3098028B1203880E8F00F10490968086000B50F4880475DF804EB0E480E490A7802700A488E
:403140000D490A680260106890E8F00F203080F309884EF0040E62B67047000022ED00E0B492FF1F04ED00E00494FF1FF50800003C93FF1F3093FF1F1094FF1F08B5124944
:40318000022000F093F90721022000F0A3F900220E4B1A7072220E4B1A702022013B1A700C49032000F082F90721032000F092F90622094B1A70472210331A70022203F516
:4031C000A8731A7008BD00BF853300008C92FF1F856500401D3400002764004010B500F0C3F904460D4A137843F020031370013A137843F010031370094A04231360094928
:403200000B7843F010030B70082307490B60136000F03CF9204600F0ABF910BD9565004000E100E09765004080E200E008B5054B5B7823B9FFF7A2FF0122024B5A70FFF709
:40324000CDFF08BD8C92FF1F0422194B1A60194A9378DBB2D178C9B2127912F0FF0F01D18B4211D0144AD05CC0B20133DBB23F2B00D900230F4A9370137913F0FF0F13D0A4
:4032800000220C4B1A710FE00C4B1B78DBB213F0200F06D00A4A1078C0B213F01E0F02D102E0002000E000200422064B1A60704780E100E08C92FF1F24A9FF1F6465004030
:4032C0004665004000E100E0164BD9799B79DBB2994205D25A1E914214BF0022012204E0CA1AFE2A14BF00220122002AECD1994207D10D4B1B7813F0040F02D10B4B187065
:403300007047FF2900D10021094B58540131054BD971054B1B7813F0020F02D00822054B1A6070478C92FF1F676500404765004024A8FF1F00E200E038B5074B5B782BB9A6
:4033400038BDFFF7C1FF0134A4B201E005460024285D0028F5D138BD8C92FF1F084B5B7833B97047305DFFF7AFFF0134E4B203E070B50D4606460024AC42F3D370BD00BFF3
:403380008C92FF1F1D4B1B78DBB213F01E0F05D01B4803F01E0201780A43027003F0200303F0FF0233B3174B1978C9B2164B1B78DBB21648C154164B1B7813F0FF0F02D06D
:4033C0000121144B197010490B780133DBB20B700B78DBB23F2B02D900210B4B19700A4B1978C9B20C4B1B78DBB2994202D10121074B1970002AC5D1704700BF6465004094
:403400008C92FF1F466500408F92FF1F24A9FF1F9092FF1F9192FF1F8E92FF1F13E0104B1B78DBB2FF2B02D100220D4B1A700C4A1378DBB20B49CB5CDBB20B490B7013783D
:403440000133DBB21370064B1B78DBB2074A1278934204D0064B1B7813F0040FDFD070479292FF1F24A8FF1F476500409392FF1F67650040044A137803F0F10300F00E008E
:4034800018431070704700BF0E500040054A137843F0020313701032137843F002031370704700BFA243004001BE704770B504460E46074B1D681F2802D90020FFF7F4FF2A
:4034C00004F01F04103455F8240045F8246070BD08ED00E038B504460D46072902D90020FFF7E2FF1F2C02D90020FFF7DDFF04F01F0000F1604000F564406D01EDB20570DA
:4035000038BD00BF074A137800F00E0003F0F103034313700132137803F0F10318431070704700BF10500040044A137803F0FB03800000F004001843107070472051004036
:40354000044A137803F0F10300F00E0018431070704700BF125000400230800803D000BF01380046FCD17047EFF3108072B6704780F31088704700BF30B5214A21F00043D5
:40358000934287B01BDD1F4A934205DD02460B4601F078F907B030BD02AA00F07DF800F0030001281AD002280FD008B3DDE9020101230093DDE9042300F0A2FFEAE700227C
:4035C000002300F081FA07B030BDDDE90423DDE9020100F079FA01F10041DBE70090DDE90423DDE9020100F08BFF01F10041D1E7DDE90423DDE9020100F066FACAE700BF6A
:40360000FB21E93FFFFFEF7F30B5214A21F00043934287B01BDD1F4A934205DD02460B4601F030F907B030BD02AA00F035F800F0030001281ED0022811D0DDE9042300B33D
:40364000DDE9020100F040FA01F10041EAE7002300930022002300F053FF07B030BD01230093DDE90201DDE9042300F049FF01F10041D7E7DDE90423DDE9020100F024FA18
:40368000D0E70124DDE90201009400F039FFC9E7FB21E93FFFFFEF7F2DE9F04F944C21F00047A7428FB040F381801446914A0E46974226DC84A3D3E90023002940F3A08179
:4036C00001F0E0F88C4B80469F42894600F083807FA3D3E9002301F0D5F802460B464046C4E90023494601F0CDF879A3D3E9002301F0C8F80125C4E9020128460FB0BDE87A
:40370000F08F7E4A974240F383807D4A974258DC3D15A5F21645A7EB05518B46824601F0FFFC01F0FDF98046894642464B4650465946CDE9088901F0A5F80022714B01F040
:4037400055FA8B46824601F0EBFC01F0E9F98046894642464B4650465946CDE90A8901F091F80022674B01F041FA00220023CDE90C0101F0A3FC002800F06A8100234046CC
:403780004946002201F09AFC002814BF012302235D480221019000912A46214608A800F0B7FA002EC0F24A81054606E0C2E9000100250024C2E90245002528460FB0BDE8C1
:4037C000F08F02460B4601F05DF80025C4E90201C4E90001F1E740A3D3E9002301F052F83FA3D3E9002306460F4601F04BF802460B463046C4E90023394601F043F838A318
:40380000D3E9002301F03EF80125C4E90201D4E700F02CFF34A3D3E900238046894601F0E5F90022394B01F02FF801F079FC054601F076F924A3D3E90023CDE9040101F09B
:40384000D5F902460B464046494601F01BF820A3D3E9002382468B46DDE9040101F0C6F91F2DCDE9020155DC294B6A1E53F822309F424FD002460B465046594601F002F88A
:4038800002460B4681468846C4E900234A4643465046594600F0F6FFDDE9022300F0F2FF02460B46002EC4E9022386DA4A4608F1004301F1004184E80C00E160A0606D42AB
:4038C0007BE700BFAFF3008000004054FB21F93F3163621A61B4D03D0000601A61B4D03D7370032E8A19A33B83C8C96D305FE43FFB21E93F7BD90240FB21F93FFB21394143
:40390000FFFFEF7F00007041387700000000E03FB8760000DDE902235046594600F0B2FF3F15C1F30A53FB1A102B81468846C4E90001ABDD58A3D3E90023DDE9040101F097
:4039400055F98046894602460B465046594600F099FFCDE9060102460B465046594600F091FF42464B4600F08DFF4DA3D3E9002380468946DDE9040101F038F942464B4604
:4039800000F080FF02460B46CDE90201DDE9060100F078FF0B4602468846C1F30A517F1A312F8146C4E9002372DD3FA3D3E90023DDE9040101F01AF98046894602460B46FF
:4039C000DDE9060100F05EFF02460B4682468B46DDE9060100F056FF42464B4600F052FF33A3D3E9002380468946DDE9040101F0FDF842464B4600F045FFCDE9020139E7EE
:403A000000F042FF2E4B80469F42894622D02AA3D3E9002300F038FF02460B464046C4E90023494600F02EFF23A3D3E9002300F02BFF4FF0FF35C4E90201BEE66268E3686B
:403A400002F1004203F1004345426260E360B4E603239DE610A3D3E9002300F015FF10A3D3E9002306460F4600F00EFF02460B463046C4E90023394600F004FF08A3D3E98D
:403A8000002300F001FF4FF0FF35C4E9020194E6DDE906ABFAE600BF0000601A61B4D03D7370032E8A19A33B0000002E8A19A33BC14920259A837B393163621A61B4D03D0E
:403AC000FB21F93F000000002DE9F04F21F00046B6F1795F85B00C4692469B4605466BDA01F01EFB002800F0E7802A4623462846214601F07BF874A3D3E900238046894651
:403B000001F074F872A3D3E9002300F0BDFE42464B4601F06BF870A3D3E9002300F0B2FE42464B4601F062F86DA3D3E9002300F0ABFE42464B4601F059F86BA3D3E9002356
:403B400000F0A0FE42464B4601F050F868A3D3E9002300F099FE42464B4601F047F8CDE900010022644B4046494601F03FF8DDE9002306460F464046494601F037F852468F
:403B8000804689465B462846214601F02FF802460B464046494600F075FE02460B463046394600F06FFE02460B460020534900F069FE05B0BDE8F08F02460B4601F016F8C9
:403BC00041A3D3E900238046894601F00FF840A3D3E9002300F058FE42464B4601F006F83DA3D3E9002300F04DFE42464B4600F0FDFF3BA3D3E9002300F046FE42464B465C
:403C000000F0F4FF38A3D3E9002300F03BFE42464B4600F0EBFF36A3D3E9002300F034FE4B46424600F0E2FF354BCDE900019E4297DD344B00229E4238DCA6F50013002019
:403C40002E4916461F4600F01DFECDE902010022294B4046494600F0C9FF32463B4600F011FEDDE9002306460F464046494600F0BDFF5246804689465B462846214600F00F
:403C8000B5FF02460B464046494600F0FBFD02460B463046394600F0F5FD02460B46DDE9020100F0EFFD05B0BDE8F08F164B0026CDE90223154FCAE71049002005B0BDE8E9
:403CC000F08F00BFAFF30080D43888BEE9FAA8BDC4B1B4BD9EEE213EAD529C804F7E923E9015CB19A001FA3E7751C1166CC1563F4C5555555555A53F0000E03F0000F03F57
:403D00003233D33F0000E93F0000E73F0000D23F2DE9F04F794CADF51D7D1F460B93D31E84FB0354DB17C3EBA403A69E744C23EAE37554F826406B1C26460994A3EB830387
:403D40007C1E0D95029402EBC3032D1B341904900A91089316D42C44013422AEA79F08E057F8250000F0DCFE0135A542E6E9020108D0002DF4DA013500200021A542E6E9A5
:403D80000201F6D1099B002B2FDB099B74AADDF8089002EBC30B0DF5E47A029B002BC0F295810B9B0026C3EB090824AB03EBC808049B0027A3F1080524AB03EBC904F5E99F
:403DC000022374E8020100F011FF02460B463046394600F059FD444506460F46EFD1EAE90267DA4509F10109D7D1099B10A91D4603F18043023B9B001A1D0A440B440F92B6
:403E00000E939CAB03EBC503002D53E928672BDD9CAB03EBC504A83C0DF13C0A0DF5E47B0022384B3046394600F0E0FE01F078F900F076FE0022344B8046894600F0D6FE35
:403E400002460B463046394600F01CFD01F068F974E802234AF8040F4946404600F014FD5C4506460F46DBD1089C30463946224600F08AFC00224FF07F5306460F4600F044
:403E8000B5FE00F0F9FB0022204B00F0AFFE02460B463046394600F0F5FC0F46064601F03FF9814600F03CFE02460B463046394600F0E8FC002C06460F4640F3EE80681EC1
:403EC00010AB53F82030C4F1180243FA02F101FA02F29B1AC4F1170810AA42F82030894443FA08F8B8F1000F3DDD002D09F1010940F3D382002214460FA911E0ABAAAA2ACE
:403F0000407800000000703E0000704100002040C3F180700BB108600124013295420DDD51F8043F002CF3D0C3F1FF13013203F57F4395420B604FF00104F1DC089B002BDA
:403F40000DDD012B00F0B180022B08D16A1E10AB53F8223010A9C3F3150341F82230B8F1020F00F08180002200233046394601F0A5F8002800F05B82099B05F1FF3B5B4536
:403F800010DC05F1804310AA013B0F9802EB8303002253F80419834242EA0102F9D1002A40F0B180099B10AA013B52F82330002B40F071820E9A012352F804190133002964
:403FC000FAD0E9186A1C8A420C914BDC0D990B985118DB0001F180410593A79B05440139E80003EB810A24ABD20003EB000B74AB13440193A2F10803069007934FF0000928
:404000005AF8040F00F08CFD029BEBE80201002B4FF000064FF000071BDB069B03EB0904079B09EB030824AB1C449844049BA3F10805F5E9022374E8020100F0D7FD02468D
:404040000B463046394600F01FFC444506460F46EFD1019B09F10809E3E802670193059B9945CDD10C9DCCE632463B460020B04900F008FC06460F46002C3FF474AF089A54
:404080000020AB4900F080FB02460B463046394600F0F8FB06460F4665E710D16B1E10AA52F823304FEAE3581CE76A1E10AB53F8223010A9C3F3160341F822304FE70022A0
:4040C0009C4B01F019F858B980464CE700260027EAE90267DA4509F101097FF45EAE84E6002D09F10109C8BF4FF002083FF702AF32463B4600208E4900F0C4FB4FF0020868
:4041000006460F462FE7089A10AB53F82B30183ACDF81490CDF8048008926BB90BF18043013B10A901EB830353F804190BF1FF3B183A0029F8D00892089A00207C4900F0EB
:4041400023FBBBF1000F04460D46C0F2B6814FEACB030DF5E87810AA02EB8B0608EB03090493043609F1080756F8040D00F0D8FC22462B4600F03AFD002267E902016E4B15
:404180002046294600F032FDB84504460D46EBD14B46CDF818B09B460DF5987ACDF808A0DDF824A04FF00009BAF1000FC0F226815DA3D3E90023DFF884815D460026002796
:4041C000002403E0A14510DBF8E90223F5E8020100F00CFD02460B463046394600F054FB0134A24506460F46ECDA029BABF1080B03EBC903C3E9006772AB5B4509F10109DE
:40420000D2D1A69BDDF818B0DDF808A0032B00F28380DFE813F0D100950095000400BBF1000F40F35481049BCDF808B053449846D3E90067D34658E9029A32463B464846A0
:40424000514600F021FB04460D4602460B464846514600F017FB32463B4600F015FBC8E9000168E90245C34526462F46E3D1DA46DDF808B0BBF1010F40F32981049B0DF577
:404280009C7B53449846D3E90067994659E902343046CDE902341A463946234600F0F4FA04460D4602460B46DDE9020100F0EAFA32463B4600F0E8FAC9E9000169E9024586
:4042C000CB4526462F46E1D100231D4608F1080850AC184678E90223294600F0D5FA444503460D46F5D1019A002A00F0D880DAF80440DAF80C200A9FDAF80010DAF808000D
:4043000005F1004504F1004402F100427D613B617C60FA603960B860059B03F007000DF51D7DBDE8F08F00BF00000040FB21F93F0000F03F0000E03F0000703E5078000002
:4043400000242146049D0835554475E90223204600F09AFA55450446F7D1019B002B50D00A9F01F100450B46DAE9000187E83000224600F087FABBF1000F03460D460DDD8D
:4043800001241846FAE90223294600F07DFA0134A34503460D46F4DA019A0AB105F10045184629460A9BC3E90201059B03F007000DF51D7DBDE8F08F00231C46049A0832AC
:4043C000924418467AE90223214600F05DFA0BF1FF3BBBF1FF3F03460C46F2D1019A0AB104F10044184621460A9BC3E90001059B03F007000DF51D7DBDE8F08F0026002788
:40440000F3E626460F4622460A9C0B46DAE90001C4E9006700F036FABBF1000F03460D46AEDC184629460A9BC3E90201BDE7089B30465A423946CDF81490CDF8048000F00F
:40444000A3F900222C4B06460F4600F055FE002840D00022294B3046394600F0C7FB00F05FFE044600F05CFB0022234B00F0BEFB0B4602463946304600F004FA00F050FEDD
:40448000089B05F1010B1833089310AB43F8250043F82B4050E6012393E500244EE51846DAE90067DAE9022329460A9DC5E90067C5E90401C5E902232EE7A69B032B3FF6AD
:4044C0002BAFDFE803F0151010020DF5987A00231D4608E73046394600F022FE10ABAB4643F8250028E6002421460DF5987A34E700231C4672E700BF000070410000703E93
:404500002DE9F04F21F00046B6F1795F85B00C4690469946054604DA00F002FE002800F085802A4623462846214600F05FFB06460F4602460B462846214600F057FB3EA3B4
:40454000D3E9002382468B463046394600F04EFB3BA3D3E9002300F095F932463B4600F045FB39A3D3E9002300F08EF932463B4600F03CFB36A3D3E9002300F083F9324643
:404580003B4600F033FB34A3D3E9002300F07CF90E9BCDE900019BB30022334B4046494600F024FBDDE90023CDE902015046594600F01CFB02460B46DDE9020100F062F944
:4045C00032463B4600F012FB42464B4600F05AF923A3D3E9002306460F465046594600F005FB02460B463046394600F04DF902460B462846214600F045F905B0BDE8F08FC5
:4046000002460B463046394600F0F0FA14A3D3E9002300F037F952465B4600F0E7FA2A46234600F031F905B0BDE8F08F2846214605B0BDE8F08F00BF7CD5CF5A3AD9E53D6A
:40464000EB9C2B8AE6E55A3E7DFEB157E31DC73ED561C119A0012A3FA6F810111111813F495555555555C53F0000E03F21F00041704700BF00000000C1F30A522DE9F8431A
:40468000A2F2FF36132E0B4604460D46884607461CDC002E3FDB3A4A864642FA06F901EA0902024317D034A3D3E9002300F0ECF80022002300F02AFD20B1002D40DB28EAE9
:4046C0000905002738462946BDE8F883332E06DDB6F5806F2FD020461946BDE8F883A2F213424FF0FF3929FA02F910EA090FF2D021A3D3E9002300F0C7F80022002300F0DD
:4047000005FD0028DED0002D20DB454627EA090738462946D8E718A3D3E9002300F0B4F80022002300F0F2FC0028CBD0002D18DB00273D46C6E702460B4600F0A5F8CCE7B5
:404740004FF4801343FA06F6B044B8E7142E10D00123C6F1340603FA06F6371928BF9844D3E725F00042074B224318BF1D460027A8E705F10108C8E79C7500883CE4377E80
:40478000FFFF0F000000F0BFF8B5C1F30A5604460D460B46174606BB21F00043034325D000222F4B00F022FA2E4A044697420D460B462ADBC1F30A56363E40F2FE723E4449
:4047C000964228DC002E12DD23F0FF4323F4E00343EA065520462946F8BD40F2FF729642EBD102460B4600F04FF8F8BDF8BD16F1350F1DDA4CF250339F420CDC14A1D1E9B3
:40480000000122462B4600F031F811A3D3E9002300F0ECF9F8BD22460FA1D1E900012B4600F024F80CA3D3E9002300F0DFF9F8BD23F0FF4323F4E003363643EA0655204664
:4048400029460022084B00F0D1F9F8BDAFF3008059F3F8C21F6EA5019C7500883CE4377E00005043B03CFFFF0000903C03F0004321F0004242EA0301704700BF81F00041F2
:4048800002E000BF83F0004330B54FEA41044FEA430594EA050F08BF90EA020F1FBF54EA000C55EA020C7FEA645C7FEA655C00F0E2804FEA5454D4EB5555B8BF6D420CDD66
:4048C0002C4480EA020281EA030382EA000083EA010180EA020281EA0303362D88BF30BD11F0004F4FEA01314FF4801C4CEA113102D0404261EB410113F0004F4FEA033363
:404900004CEA133302D0524263EB430394EA050F00F0A780A4F10104D5F1200E0DDB02FA0EFC22FA05F2801841F1000103FA0EF2801843FA05F359410EE0A5F120050EF1F2
:40494000200E012A03FA0EFC28BF4CF0020C43FA05F3C01851EBE37101F0004507D54FF0000EDCF1000C7EEB00006EEB0101B1F5801F1BD3B1F5001F0CD349085FEA30006C
:404980004FEA3C0C04F101044FEA445212F5800F80F09A80BCF1004F08BF5FEA500C50F1000041EB045141EA050130BD5FEA4C0C404141EB010111F4801FA4F10104E9D1FD
:4049C00091F0000F04BF01460020B1FA81F308BF2033A3F10B03B3F120020CDA0C3208DD02F1140CC2F10C0201FA0CF021FA02F10CE002F11402D8BFC2F1200C01FA02F121
:404A000020FA0CFCDCBF41EA0C019040E41AA2BF01EB0451294330BD6FEA04041F3C1CDA0C340EDC04F11404C4F1200220FA04F001FA02F340EA030021FA04F345EA030188
:404A400030BDC4F10C04C4F1200220FA02F001FA04F340EA0300294630BD21FA04F0294630BD94F0000F83F4801306BF81F480110134013D4EE77FEA645C18BF7FEA655C81
:404A800029D094EA050F08BF90EA020F05D054EA000C04BF1946104630BD91EA030F1EBF0021002030BD5FEA545C05D14000494128BF41F0004130BD14F580043CBF01F5A0
:404AC000801130BD01F0004545F0FE4141F470014FF0000030BD7FEA645C1ABF194610467FEA655C1CBF0B46024650EA013406BF52EA033591EA030F41F4002130BD00BF30
:404B000090F0000F04BF0021704730B54FF4806404F132044FF000054FF0000150E700BF90F0000F04BF0021704730B54FF4806404F1320410F0004548BF40424FF000012B
:404B40003EE700BF42004FEAE2014FEA31014FEA02701FBF12F07F4393F07F4F81F06051704792F0000F14BF93F07F4F704730B54FF4607401F0004521F0004120E700BF5B
:404B800050EA010208BF704730B54FF000050AE050EA010208BF704730B511F0004502D5404261EB41014FF4806404F132045FEA915C3FF4DCAE4FF003025FEADC0C18BFC9
:404BC00003325FEADC0C18BF033202EBDC02C2F1200300FA03FC20FA02F001FA03FE40EA0E0021FA02F11444C1E600BF70B54FF0FF0C4CF4E06C1CEA11541DBF1CEA1355ED
:404C000094EA0C0F95EA0C0F00F0DEF82C4481EA030621EA4C5123EA4C5350EA013518BF52EA033541F4801143F4801338D0A0FB02CE4FF00005E1FB02E506F00042E0FB6B
:404C400003E54FF00006E1FB03569CF0000F18BF4EF0010EA4F1FF04B6F5007F64F5407404D25FEA4E0E6D4146EB060642EAC62141EA55514FEAC52040EA5E504FEACE2ECF
:404C8000B4F1FD0C88BFBCF5E06F1ED8BEF1004F08BF5FEA500E50F1000041EB045170BD06F0004646EA010140EA020081EA0301B4EB5C04C2BFD4EB0C0541EA045170BDA8
:404CC00041F480114FF0000E013C00F3AB8014F1360FDEBF002001F0004170BDC4F10004203C35DA0C341BDC04F11404C4F1200500FA05F320FA04F001FA05F240EA020080
:404D000001F0004221F0004110EBD37021FA04F642EB06015EEA430E08BF20EAD37070BDC4F10C04C4F1200500FA04F320FA05F001FA04F240EA020001F0004110EBD37061
:404D400041F100015EEA430E08BF20EAD37070BDC4F1200500FA05F24EEA020E20FA04F301FA05F243EA020321FA04F001F0004121FA04F220EA020000EBD3705EEA430EB9
:404D800008BF20EAD37070BD94F0000F0FD101F00046400041EB010111F4801F08BF013CF7D041EA060195F0000F18BF704703F00046520043EB030313F4801F08BF013D6D
:404DC000F7D043EA0603704794EA0C0F0CEA135518BF95EA0C0F0CD050EA410618BF52EA4306D1D181EA030101F000414FF0000070BD50EA410606BF1046194652EA4306AF
:404E000019D094EA0C0F02D150EA013613D195EA0C0F05D152EA03361CBF104619460AD181EA030101F0004141F0FE4141F470014FF0000070BD41F0FE4141F4780170BD0A
:404E400070B54FF0FF0C4CF4E06C1CEA11541DBF1CEA135594EA0C0F95EA0C0F00F0A7F8A4EB050481EA030E52EA03354FEA013100F088804FEA03334FF0805545EA1313FD
:404E800043EA12634FEA022245EA111545EA10654FEA00260EF000419D4208BF964244F1FD0404F5407402D25B084FEA3202B61A65EB03055B084FEA32024FF480104FF449
:404EC000002CB6EB020E75EB030E22BFB61A754640EA0C005B084FEA3202B6EB020E75EB030E22BFB61A754640EA5C005B084FEA3202B6EB020E75EB030E22BFB61A754680
:404F000040EA9C005B084FEA3202B6EB020E75EB030E22BFB61A754640EADC0055EA060E18D04FEA051545EA16754FEA06164FEAC30343EA52734FEAC2025FEA1C1CC0D1AA
:404F400011F4801F0BD141EA00014FF000004FF0004CB6E711F4801F04BF01430020B4F1FD0C88BFBCF5E06F3FF6AFAEB5EB030C04BFB6EB020C5FEA500C50F1000041EB99
:404F8000045170BD0EF0004E4EEA113114EB5C04C2BFD4EB0C0541EA045170BD41F480114FF0000E013C90E645EA060E8DE60CEA135594EA0C0F08BF95EA0C0F3FF43BAF5B
:404FC00094EA0C0F0AD150EA01347FF434AF95EA0C0F7FF425AF104619462CE795EA0C0F06D152EA03353FF4FDAE1046194622E750EA410618BF52EA43067FF4C5AE50EA51
:4050000041047FF40DAF52EA43057FF4EBAE12E74FF0FF3C06E000BF4FF0010C02E000BF4FF0010C4DF804CD4FEA410C7FEA6C5C4FEA430C18BF7FEA6C5C1BD001B050EAE8
:40504000410C0CBF52EA430C91EA030F02BF90EA020F0020704710F1000F91EA030F58BF994208BF90422CBFD8176FEAE37040F0010070474FEA410C7FEA6C5C02D150EA83
:40508000013C07D14FEA430C7FEA6C5CD6D152EA033CD3D05DF8040B704700BF8446104662468C461946634600E000BF01B5FFF7B7FF002848BF10F1000F01BD4DF808EDA9
:4050C000FFF7F4FF0CBF012000205DF808FB00BF4DF808EDFFF7EAFF34BF012000205DF808FB00BF4DF808EDFFF7E0FF94BF012000205DF808FB00BF4DF808EDFFF7CEFF89
:4051000094BF012000205DF808FB00BF4DF808EDFFF7C4FF34BF012000205DF808FB00BF4FEA410212F5001215D211D56FF47873B3EB625212D94FEAC12343F0004343EAD9
:40514000505311F0004F23FA02F018BF404270474FF00000704750EA013005D111F0004008BF6FF0004070474FF00000704700BF0A22002100F098BD014B1868704700BFFF
:405180003481FF1F0E4B70B51E460E4C0025E41AA410A54204D056F8253098470135F8E702F0A8FC084B094C1E46E41AA4100025A54204D056F8253098470135F8E770BDBF
:4051C000007B0000007B0000007B0000087B000010B5431E0A44914204D011F8014B03F8014FF8E710BD03460244934202D003F8011BFAE770472DE9F04788B0149F002B0C
:405200001E461299B8BF03F1004327F02007B6BF1E4600232D23462F1446109DDDF84CA00B7003D0452F03D1013501E0032300E0022307AA049206AA03928DE8280422467D
:40524000334600F0C9FD472F804602D1119BDB0728D5462F08EB050911D198F80030302B0AD10022002320463146FFF727FF18B9C5F10105CAF80050DAF800309944002239
:40528000002320463146FFF719FF08B9302202E0CDF81C9006E0079B994503D9591C07911A70F8E74046079B159AC8EB0303136008B0BDE8F087034673B50029B8BF49424F
:4052C00003F8022BB4BF2D222B22092942701ADD0DF1070216460A2591FBF5F405FB1411092C01F1300102F8011D2146F4DC3031541E02F8011CB4421A460AD214F8012B75
:4053000003F8012BF7E71A463024214402F8024B5970101A02B070BD2DE9F04F91B00C46DDF8688016461F46054601F0EDFA03681846099300F002FC00230E93D8F8003096
:405340000A90073323F0070303F1080294F81890D4F800B0C8F80020D3E90023C4E91223D4F84CA0D4F848802AF000430B934FF0FF32A74B40460B9902F01AF8A0B94FF07E
:40538000FF32A34B40460B99FFF7ACFE60B90022002340465146FFF79BFE10B12D2384F843309C4B9C4A0AE0424653464046514601F0FEFF002800F09281984B984AB9F17D
:4053C000470F8CBF90469846032323612BF0040323604FF0000A3DE0B9F1670F00F08A81B9F1470F00F0868123600193636800210DF13302059002920093424653460691E7
:40540000CDF81090CDF80CE02846FFF7F4FE09F0DF03472B804600F08481B9F1650F0D9900F28D8101394A4604F150000D91FFF742FF0E9A82468318012A236100F37C81A6
:405440002268D10700F178819DF8333013B12D2384F84330009733460FAA2146284600F09FF9013002D14FF0FF3096E123685A0501D4236965E0B9F1650F40F2D580D4E9E4
:40548000120100220023FFF719FE78B30123654A31462846B8470130E5D00E9B0D9A9A420BDB2368D80708D423689B0740F111814FF0000804F1190906E10A9B099A314673
:4054C0002846B8470130CED04FF0000804F11A090E9B013B9845E7DA01234A4631462846B8470130BFD008F10108F1E70D9B002B29DC01234B4A31462846B8470130B2D034
:405500000D9B23B90E9B13B92368D907CCD50A9B099A31462846B8470130A4D04FF0000904F11A0A0D9B5B42994509DA0123524631462846B847013095D009F10109F1E71C
:405540000E9B4246A7E00E9AA36D9A42A8BF1A46002A914606DC4FF0000A29EAE97904F11A0B11E01346314642462846B8470130F1D178E701235A4631462846B84701307C
:405580003FF471AF0AF1010AA36DC9EB03029245F0DB08EB03090D9A0E9B9A420FDB2368DA070CD40E9B0D9A9844C9EB08089B1A9845A8BF9846B8F1000F08DC0FE00A9BCF
:4055C000099A31462846B8470130EBD14BE743464A4631462846B84701303FF444AF4FF0000928EAE87804F11A0A09E00123524631462846B84701303FF435AF09F1010909
:405600000D9A0E9B9B1AC8EB03039945EEDB4BE7FFFFEF7F93790000977900009B7900009F790000A37900000E9A012A01DCDB0738D50123424631462846B84701303FF470
:4056400012AF0A9B099A31462846B84701303FF40AAFD4E9120100220023FFF72FFD20B14FF0000804F11A090EE00E9B08F10102013B19E001234A4631462846B847013028
:405680003FF4F1AE08F101080E9B013B9845F1DB534604F1500231462846B84701307FF403AFE0E64246012331462846B8470130EED1D8E601234A4631462846B8470130A1
:4056C0003FF4D1AE08F10108E3680F9A9B1A9845F0DBE0680F9B9842B8BF18465DE062680EA8531C0DF1340E4BF480637FF474AE062201E012B90122626075E60021069115
:405700000DF133018DE80C00236005904246CDF81090CDF80CE0029153462846FFF76BFD80460D9BD81C02DB626893421DDDA9F102095FFA89F970E60133236184E6B9F18E
:40574000660F14D10029636807DD216113B92268D2071DD501330B4419E013B92268D00701D5023313E0012311E04FF067090D9B0E9A934205DB22682361D10708D50133ED
:4057800005E0002BD4BFC3F102030123134423610D9B4FF0000AA36556E611B0BDE8F08F2DE9F04791461F460A698B6806469342B8BF1346C9F8003091F843200C46DDF890
:4057C000208012B10133C9F800302368990642BFD9F800300233C9F80030256815F0060510D104F1190A07E00123524639463046C04701301AD00135E368D9F800209B1A58
:405800009D42F1DB94F843302268003318BF012392060FD5E118302081F843005A1C94F845102244023382F8431003E04FF0FF30BDE8F08704F1430239463046C0470130F2
:40584000F4D02268D9F80050E36802F00602042A08BF5D1B2269A3680CBF25EAE57500259342C4BF9B1AED184FF000091A344D4509D00123224639463046C0470130D5D0A7
:4058800009F10109F3E70020BDE8F0872DE9F04317460A7E85B06E2A984606460C460C9B01F1430E00F0AE8011D8632A22D009D8002A00F0BB80582A40F0CA8081F84520D7
:4058C000834955E0642A1ED0692A1CD0C0E0732A00F0B08009D86F2A2ED0702A40F0B8800A6842F020020A603EE0752A24D0782A3AD0ADE01A6801F14205111D19601368DE
:4059000084F84230A8E021681A6811F0800F02D0111D196008E011F0400F02F10401196002D0B2F9003000E01368002B3CDA2D225B4284F8432037E021681A6811F0800F6E
:4059400002D0111D196007E011F0400F02F10401196001D0138800E01368227E5C496F2A14BF0A2208221BE078225A4984F845202268186812F0800F00F104051D6003D139
:40598000550601D5038800E00368D00744BF42F0200222601BB9226822F0200222601022002084F8430001E049490A226568002DA56008DB206820F0040020602BB9002D5D
:4059C0007DD175460CE0002B79D07546B3FBF2F002FB1033CB5C05F8013D03460028F5D1082A0BD12368DA0708D5236962689A42DEBF302305F8013C05F1FF35C5EB0E037C
:405A000023612EE008681A6810F0800F496903D0101D1860136808E010F0400F02F104001860136801D0198000E0196000232361754616E01A68111D1960156800216268E1
:405A4000284600F06DFF08B1401B6060636804E004F1420584F8422001232361002384F84330CDF800803B4603AA21463046FFF797FE013002D14FF0FF3026E023692A46B6
:405A800039463046C0470130F5D023689B0710D5002504F1190907E001234A4639463046C0470130E7D00135E368039A9B1A9D42F2DBE068039B9842B8BF184605E00B78AB
:405AC00004F1420584F842308AE705B0BDE8F083A5790000B67900000CB430B5164B0C1E9DB01D6804DA8B232B604FF0FF301EE04FF40273ADF814300CBF234604F1FF3370
:405B0000049307934FF6FF7302900690ADF81630209A21AB02A92846019301F0F7FA431CBCBF8B232B6014B1029B00221A701DB0BDE8304002B070473481FF1F034613F8C2
:405B4000012B002AFBD1181A0138704730B582B1451E013915F8013F11F8014FA34206D1EC431444E04201D0002BF3D11C46181B30BD104630BD034610B542B111F8014B46
:405B8000013A03F8014B002CF7D11A4400E010BD934202D003F8014BFAE710BD2DE9F0470F4680463F48D0F800903D4615F8014B09EB0400407800F0080000F0FF0608B14F
:405BC0002F46F2E72D2C03D1BD1C7C78012603E02B2C04BF7C78BD1C13B1102B0AD15BE0302C57D1287800F0DF0058284DD16C7810230235002E14BF4FF0004C6FF0004C41
:405C0000BCFBF3FA0027384603FB1ACC09EB040E9EF801E01EF0040F01D0303C0BE01EF0030E1BD0BEF1010F0CBF4FF0370E4FF0570ECEEB0404A34210DDB7F1FF3F0AD062
:405C4000504506D801D1644503DC03FB0040012701E04FF0FF3715F8014BD7E77B1C0CD1002E4FF0220314BF4FF000406FF00040C8F800302AB9BDE8F08706B1404272B142
:405C800007B1691E1160BDE8F0873024002BB1D10823AFE70A23ADE7302CA3D0AAE7BDE8F08700BFD080FF1F13460A46014602480068FFF773BF00BF3481FF1F2DE9F74F34
:405CC00003690C6980469C427FDC013C01F114074FEA840E00F1140606EB0E0357F82450019356F824300135B3FBF5F507EB0E09C5B34FF0000A3846B446D34650F8043BF9
:405D00009AB205FB02A21B0C4FEA124A05FB03A392B2C2EB0B0BBCF800204FEA134A5A441FFA83FBDCF800308145CBEB134303EB224392B242EA03424FEA234B4CF8042B73
:405D4000DCD256F80E306BB9019B043B9E421A4602D3C8F8104005E01268043B002AF8D1013CF3E7404600F0F6FF00282BDB304601354FF0000E57F8042B036891B2C1EBB3
:405D80000E0E120C99B27144C2EB134303EB214389B24FEA234EB94541EA034340F8043BE9D256F8242006EB840362B9043B9E421A4602D3C8F8104005E01268043B002A7D
:405DC000F8D1013CF3E7284600E0002003B0BDE8F08F0000000000002DE9F04F456A95B08246219CCDE9022345B9102000F090FDCAF82400456085600560C560DAF824300A
:405E0000196859B15A68012393404A608B60504600F0C9FDDAF8243000221A60039BA04A002BBDBF01232360039B0023BCBF23F000430393DDF80C80A8BF236028F00043D7
:405E40001B0D1B0593421DD142F20F73209A1360029B43B9934A944BC8F31300002814BF1846104600E09048229B002B00F04685C37813B100F1080300E0C31C229A13601E
:405E800000F03CBDDDE902450022002320462946FFF714F9074658B1209A01231360229B002B00F01E8581481860013800F026BD12AB019313AB009322462B46504600F05F
:405EC000C5FFC8F30A56049056B1C5F3130343F07F51204641F44011A6F2FF3611971DE0139B129E1E4406F23243202B0ADD029A06F21240C3F1400322FA00F008FA03F3B9
:405F0000184304E0C3F12000029B03FA00F0FEF7F7FD0123A1F1F871013E11930022644BFEF7B0FC58A3D3E90023FEF75FFE58A3D3E90023FEF7A8FC044630460D46FEF7C0
:405F4000EFFD55A3D3E90023FEF750FE02460B4620462946FEF798FC04460D46FFF7E0F800228346002320462946FFF7B1F858B15846FEF7D5FD02460B4620462946FFF765
:405F80009DF808B90BF1FF3BBBF1160F0DD8DDE90223484901EBCB01D1E90001FFF7B6F830B10BF1FF3B002300E00123109300E01090129B9E1B731E079343BFC3F100085C
:405FC000002307934FF00008BBF1000F06DB079BCDF82CB05B440793002705E00023CBEB0808CBF100070B931E9B092B28D8052BC4BF043B1E931E9BC8BF0025A3F10203A1
:40600000D8BF0125032B20D8DFE803F0060E0204012302E0012308E000230A931F9B002B1DDD9946059321E000230A931F9B0BEB030909F10103012B0593B8BF012315E0B2
:40604000012500231E930A9501E001230A934FF0FF390022CDF8149012231F9206E04FF001094B46CDF81490CDF87C90DAF8244000226260042101F114029A421CD8626822
:40608000490001326260F6E761436F63A787D23FB3C8608B288AC63FFB799F501344D33F0000F07FC7790000D0790000A47900000000F83FE07900006168504600F03EFCF9
:4060C000DAF8243020601B680693059B0E2B00F25B81002D00F05881DDE90234BBF1000FCDE90E3430DD9F4A0BF00F034FEA2B1502EBC303E80618CBCDE908340CD5DDE9F9
:406100000E01994B05F00F05D3E90823FEF798FE0324CDE9020100E00224934E6DB1E90708D5DDE90801D6E90023FEF75FFDCDE9080101346D100836F0E7DDE90823DDE900
:406140000201FEF77DFE20E0CBF1000505B3DDE90E01844B05F00F0203EBC203D3E90023FEF744FDCDE902017F4E2D110023022455B1EA0705D5D6E90023FEF737FD0134A3
:4061800001236D100836F3E71BB1CDE9020100E00224109BE3B1DDE902560022734B28463146FEF795FF98B1059B8BB1B9F1000F40F3E6800BF1FF330893314600226C4B60
:4061C0002846FEF713FD0134CDE902014E4602E0059ECDF820B02046FEF7A2FCDDE90223FEF704FD634B0022FEF74EFBA1F1507304460C931D46D6B9DDE9020100225E4BE4
:40620000FEF740FB22460C9BCDE90201FEF77EFF002840F03F820C99224601F10043DDE90201FEF755FF002840F02B82A8E00A9A4C4B711E002A49D003EBC103D3E900235C
:4062400000204E49FEF7FCFD22462B46FEF71AFBCDE90C01069CDDE90201FEF761FF0546FEF75EFC02460B46DDE90201FEF70AFBDDE90C23303504F8015BCDE90201FEF7BD
:4062800027FF002840F01D83DDE9022300203749FEF7F8FADDE90C23FEF71AFF002840F0D180069BE31AB3426ADADDE90C0100222F4BFEF79BFC0022CDE90C01DDE9020122
:4062C0002B4BFEF793FCCDE90201C4E703EBC1012246D1E900012B46FEF788FC069BCDE90C011D469C19DDE90201FEF719FF0646FEF716FC02460B46DDE90201FEF7C2FACB
:40630000303605F8016BAC42CDE902014FF0000222D11A4BDDE90C01FEF7B6FA02460B46DDE90201FEF7F2FE002840F08B80DDE90C2300201149FEF7A5FA02460B46DDE9CA
:406340000201FEF7C5FED8B114F8013C621E302B40F0B7821446F7E7054BFEF747FCCDE90201C0E7E0790000B87A00000000F03F0000244000001C40000014400000E03F3F
:40638000DDE90E34CDE90234139B002B7CDBBBF10E0F79DCAB4B03EBCB03D3E900671F9B002B14DA059B002B11DC40F06C810022A54B30463946FEF719FCDDE90223FEF72D
:4063C0009BFE059D2E46002840F05F8165E1069CDDE9028932463B4640464946FEF730FDFEF79EFE0546FEF79BFB32463B46FEF7FDFB0B46024649464046FEF743FA05F12A
:40640000300E069B04F801EBC3EB040E059B73452DD102460B46FEF737FA8046894602460B4630463946FEF753FE78B942464B4630463946FEF742FE002800F04482EB0713
:4064400004D440E2DDF820B000E01C4614F8012C631E392A07D1069A9A42F6D1069930220BF1010B0A701A7801321A702BE20022764BFEF7BBFB0022002380468946FEF7D7
:406480001DFE0028A6D01EE20A9A002A2BD01E9A012A0ADC119A12B103F2334302E0129BC3F136033D46444613E0059B5D1EAF42BFBF0B9BEA1B9B180B93059BB6BF2F462C
:4064C0007D1B0025002BA7BF4446059BC3EB08040023079A01211A4450469844079200F001FB064602E03D4644460A9E5CB1079B002B08DDA342A8BF2346079AC3EB080879
:40650000E41AD31A0793002F1DDD0A9BABB18DB131462A46504600F07FFB049A01460646504600F0E8FA04990890504600F03BFA089B04937A1B06D000E03A4604995046C6
:4065400000F06AFB04900121504600F0CBFA0B9B05465BB31A460146504600F05DFB1E9B0546012B18DC029B83B9039BC3F3130373B9039B23F000473F0D3F054FB1079B84
:4065800008F1010801330793012702E0002700E0029F0B9B73B100E000272B6905EB8303186900F052FAC0F1200004E01E9B012BD9DD0B9F0120079B184410F01F0008D0B1
:4065C000C0F12003042B02DDC0F11C0002E006D018461C30079B8044034404440793B8F1000F05DD42460499504600F063FB0490079B002B05DD29461A46504600F05AFB6B
:406600000546109B23B32946049800F0A4FB00281EDA00230A220499504600F0DBF90A9B0BF1FF3B0490002B00F05F81314600230A22504600F0CEF9B9F1000F06463FDCF1
:406640003BE000BFE07900000000144000002440059B002B2BDC1E9B022B28DDDDF81490B9F1000F11D129464B460522504600F0B1F901460546049800F06DFB00280CDC71
:4066800003E0354600E000252E461F9B069C6FEA030B09E03546DDF820B0069B069A5C1C312313700BF1010B05960026F7E00A9BDDF8149023B9069CB2E01E9B022BCFDC48
:4066C000002C05DD31462246504600F0F3FA06469FB17168504600F031F90446326906F10C01023292000C30FEF772FD01222146504600F0DFFA059000E00596029B069F8B
:4067000003F00103079329460498FFF7D7FA3146044600F13008049800F01DFB059A02902946504600F033FBC36802463BB901460A90049800F00FFB0A9A034600E0012345
:40674000114650460A9300F02EF90A9B53B91E9A42B9079A32B9B8F1390F2AD0029B002B1CDC1DE0029A002A04DB1BD11E9ACAB9079ABAB9002B13DD01220499504600F09F
:4067800099FA2946049000F0E6FA002803DC07D118F0010F04D0B8F1390F0AD004F131087C1C0CE0002B07F101040BDDB8F1390F03D139233B70013756E008F1010887F860
:4067C00000806CE0069B2746E31A4B4504F8018C3BD000230A220499504600F0FBF8059B04909E424FF00A024FF000033146504604D100F0EFF80646059084E700F0EAF8C1
:40680000002306460A220599504600F0E3F8059079E700230A220499504600F0DBF8049029460498FFF74AFA069B00F1300804F8018BE31A4B45ECDB069B0596B9F1010F0F
:40684000ACBF4B4401331F46002601220499504600F030FA2946049000F07DFA002803DC15D118F0010F12D03C4614F8013C621E392B09D1069B934204D10BF1010B31236E
:40688000069A02E01446F0E70133137007E03C4614F8013C621E302B01D11446F8E72946504600F080F8059B6BB12EB19E4203D03146504600F077F80599504600F073F820
:4068C00001E0DDF820B00499504600F06CF80023209A23700BF101031360229B1BB11C6001E008480AE0069808E0B9F1000F3FF7E2AE1E9B022B7FF7DEAEB1E615B0BDE89A
:40690000F08F00BFA3790000004870473881FF1F024B0146186800F041BB00BF3481FF1F10B5C9B202449042034605D01C7801308C42F8D1184610BD002010BD70B5456AD7
:4069400004460E463DB91020FFF7E2FF6062456085600560C560656AEB6843B1636ADB6853F8260078B1026843F8262017E021220421204600F0B8FA636AE860DB68002B11
:40698000ECD1002070BD012101FA06F56A1D9200204600F0A9FA0028F3D04660856000230361C36070BD70B5446A06460D463CB91020FFF7ADFF7062446084600460C4603B
:4069C0003DB1736A6A68DB6853F82210296043F8225070BD2DE9F04106460C460D691F4601F1140E0023DEF80000013381B202FB0171000C0F0C02FB007089B201EB004138
:406A00009D424FEA10474EF8041BECDCD7B1A3689D4212DB616830460131FFF78FFF8046226904F10C01023292000C30FEF7D0FB21463046FFF7B7FF444604EB8503013591
:406A40005F6125612046BDE8F081030C1B0413B90004102300E0002310F07F4F04BF0002083310F0704F04BF0001043310F0404F04BF80000233002803DB420003D5581CFD
:406A800070471846704720207047036813F007020BD0D90722D49A074BBF5B089B08036003604CBF01200220704799B209B91B0C102213F0FF0F04BF1B0A0832190704BFF3
:406AC0001B090432990704BF9B080232D90702D45B0805D00132036010467047002070472020704710B50C460121FFF727FF01224461026110BD2DE9F74F14460A692369A1
:406B000088469A42BEBF0B46A0461C46D8F81070D4F81090D8F80830D8F8041007EB09069E42C8BF0131FFF709FF00F114052B4605EB860C0022634502D243F8042BFAE76F
:406B400004F1140208F1140102EB890301EB87070093009B0192934257D9B2F800B0BBF1000F23D08946AE464FF0000859F8044BBEF800A0A3B20BFB03A34FEA144ADEF8CD
:406B8000004043444FEA14480BFB0A84F24604EB13449BB243EA04434F454FEA14484AF8043B01D9D646E1E7CEF80480019B0432B3F802A0BAF1000F21D02C4689462B6856
:406BC0004FF00008B9F800E0B4F802B09BB20AFB0EBEA346F04443EA08434BF8043B59F8043BB4F804E01B0C0AFB03E34F4503EB18434FEA134801D95C46E3E76360043545
:406C0000A7E75CF8043D13B9013E002EF9DC066103B0BDE8F08F00002DE9F843154612F0030206460F4607D0214C013A002354F82220FFF7CFFE0746AD1036D0746A3CB9BB
:406C40001020FFF765FE7062446084600460C460D6F82480D8F808404CB940F271213046FFF740FF04460023C8F8080003604FF00008EB070AD5394622463046FFF73BFF6E
:406C8000814639463046FFF78EFE4F466D100CD0206808B10446ECE7224621463046FFF72AFF2060C0F80080F4E73846BDE8F883A87A00002DE9F0470C4607469146266941
:406CC0004FEA621A56444968A368751CAB4202DA01315B00FAE73846FFF730FE002380461A4600F11401534503DA41F823200133F9E72AEAEA73206901EB830319F01F092E
:406D000004F1140101EB800E14D0C9F1200C002208689A4600FA09F0024343F8042B51F8042B8E4522FA0CF2F2D8CAF8042042B1B51C06E0043B51F8042B8E4543F8042F3A
:406D4000F9D8013D3846C8F810502146FFF72BFE4046BDE8F08703690A6910B59B1A11D192001430143183180A4453F8044D52F8041D8C4202D007D3012010BD9842F4D3EF
:406D8000002010BD184610BD4FF0FF3010BD2DE9F8430C460746114620461546FFF7DBFF061E08D131463846FFF7C8FD012303614661BDE8F883BCBF23462C46384661680F
:406DC000BABF1D4601260026FFF7B8FD2B69C660266905F1140904F1140101EB860709EB830800F114054FF0000C51F8042B59F8044B93B29C44A3B2240CC3EB0C03C4EBDE
:406E0000124202EB23429BB24FEA224CC84543EA02428E4645F8042BE7D8BE450ED25EF8041B8AB26244131403EB114392B242EA03424FEA234C45F8042BEEE755F8043D6C
:406E40000BB9013EFAE70661BDE8F8832DE9F3411C4601219046089E099DFFF76FFDC4F31302C4F30A5407460CB142F480120192B8F1000F19D002A840F8088DFFF705FEFE
:406E8000009B48B1019AC0F1200102FA01F10B43C2407B61019200E07B61019B002B14BF02210121BB61396107E001A8FFF7EDFD019B01217B613961203034B1A4F23344ED
:406EC00004443460C0F1350009E0A0F2324007EB810330601869FFF7B8FDC0EB41102860384602B0BDE8F08138B502FB01F4214600F054F8054618B122460021FEF773F967
:406F0000284638BD38B50546002944D051F8043C0C1F002BB8BFE41800F017FA1E4A1368114613B96360146030E0A3420DD92268A018834201BF18685B6812182260636095
:406F40000C6023E0A24203D813465A68002AF9D118681918A1420BD12168014458188242196013D110685268014419605A600DE002D90C232B6009E021686018824201BF6B
:406F8000106852680918216062605C602846BDE8384000F0DBB938BD9C92FF1F70B5CD1C25F0030508350C2D38BF0C25002D064601DBA94202D90C23336046E000F0C5F9B5
:406FC000234B1C681A462146A1B10B685B1B0ED40B2B03D90B60CC18CD501EE08C420BBF63684B681360636018BF0C4615E00C464968E9E7174C23681BB9304600F07AF967
:4070000020602946304600F075F9431C18D0C41C24F00304A0420DD12560304600F096F904F10B00231D20F00700C31A0ED05A42E25070BD211A304600F05CF90130EBD121
:407040000C233360304600F081F9002070BD00BF9C92FF1F9892FF1F2DE9F0478E6882469E420C46914698463ED88A8912F4906F3AD02568096902236F1A656905EB4505EF
:4070800095FBF3F57B1C43449D4238BF1D4653050FD52946FFF782FF064698B13A462169FEF796F8A38923F4906343F08003A38113E02A4600F04BF9064670B92169504681
:4070C000FFF720FF0C23CAF80030A3894FF0FF3043F04003A381BDE8F08726613E44266046466561ED1BA560464528BF464649463246206800F00EF9A36800209B1BA360B4
:4071000023681E442660BDE8F08700002DE9F04F9DB003938B8980461C060D4616460DD50B695BB94021FFF739FF2860286118B90C23C8F80030CDE040236B610023099348
:4071400020238DF82930DFF89CB130238DF82A3037463C4614F8013B1BB9B7EB060910D003E0252BF9D02746F3E74B46324629464046FFF771FF013000F0A780099B4B44CA
:4071800009933B78002B00F0A08000234FF0FF3204930793059206938DF853301A930126052221784E48FFF7BBFB671C049B38B14B4A3C46801A06FA00F018430490EFE702
:4071C000D90644BF20228DF853201A0744BF2B228DF8532022782A2A03D0079A00210A200BE0039A111D12680391002A10DA524243F00200079204900BE027463B7801344F
:40720000303B092B03D800FB02320121F5E701B107923B782E2B1ED17B782A2B0AD1039B02371A1D1B680392002BB8BF4FF0FF33059310E0002319460593781C0A24074654
